:020000040800F2
:1000000068060020CD010008D5010008D7010008CE
:10001000D9010008DB010008DD0100080000000034
:10002000000000000000000000000000DF010008E8
:10003000E101000800000000E3010008E5010008FC
:10004000E7010008E7010008E7010008E7010008F0
:10005000E7010008E7010008E7010008E7010008E0
:10006000E7010008E7010008E7010008E7010008D0
:10007000E7010008E7010008E7010008E7010008C0
:10008000E7010008E7010008E7010008E7010008B0
:10009000E7010008E7010008E7010008E7010008A0
:1000A000E7010008E7010008E7010008E701000890
:1000B000E7010008E7010008E7010008E701000880
:1000C000E7010008E7010008E7010008E701000870
:1000D000E7010008E7010008E7010008E701000860
:1000E000E7010008E7010008E7010008E701000850
:1000F000E7010008E7010008E7010008E701000840
:10010000E7010008E7010008E7010008E70100082F
:10011000E7010008E7010008E7010008E70100081F
:10012000E7010008E7010008E7010008E70100080F
:1001300000F002F800F03AF80AA090E8000C8244BF
:100140008344AAF10107DA4501D100F02FF8AFF29C
:10015000090EBAE80F0013F0010F18BFFB1A43F0A5
:10016000010318473808000058080000103A24BF5F
:1001700078C878C1FAD8520724BF30C830C144BF0C
:1001800004680C607047000000230024002500264E
:10019000103A28BF78C1FBD8520728BF30C148BFEA
:1001A0000B6070471FB51FBD10B510BD00F031F8D2
:1001B0001146FFF7F7FF00F0CFFB00F04FF803B454
:1001C000FFF7F2FF03BC00F057F800000948804732
:1001D00009480047FEE7FEE7FEE7FEE7FEE7FEE729
:1001E000FEE7FEE7FEE7FEE704480549054A064B41
:1001F00070470000E1080008310100086800002095
:1002000068060020680200206802002070477047DE
:100210007047754600F02CF8AE4605006946534617
:1002200020F00700854618B020B5FFF7DDFFBDE8D8
:1002300020404FF000064FF000074FF000084FF04D
:10024000000B21F00701AC46ACE8C009ACE8C009DE
:10025000ACE8C009ACE8C0098D46704710B504464B
:10026000AFF300802046BDE81040FFF7A8BF0000B4
:10027000004870470400002001491820ABBEFEE78B
:10028000260002007047000000B51D48806940F05C
:1002900008001B4988611B48006820F00F001949BD
:1002A00008600846006840F00300086025E0154833
:1002B0000830006840F48070124908310860124824
:1002C00000F044FB0F480830006820F480700D49AE
:1002D000083108600C4800F039FB0C48006800F059
:1002E000040048B90948006800F0080020B1084837
:1002F000006800F0010000B900E0D8E700BF00BDD1
:1003000000100240040C0140404B4C000818014012
:100310000808014010B529480068012835D128484F
:10032000006800F0010070B12648006800F0040089
:1003300048B92448006800F0080020B1214800684E
:1003400000F0100008BB00201C490860642000F089
:10035000F7FA1B48006800F0010008B9012010BD41
:100360001848006800F0040008B10220F7E71548BB
:10037000006800F0080008B90320F0E711480068A1
:1003800000F01000C0B90420E9E70D48006800F053
:10039000010070B90B48006800F0040048B109483A
:1003A000006800F0080020B90648006800F010005E
:1003B00010B10120014908600020D0E700000020B2
:1003C00008080140081801401A48806940F00400FC
:1003D000184988610846806940F0400088611648E5
:1003E000006820F00F00144908600846006840F0DB
:1003F000040008601148006820F470600F4908602C
:100400000846006840F4806008600846006820F4F0
:10041000704008600846006840F480400860084664
:10042000006820F4702008600846006840F48020CE
:1004300008607047001002400008014000180140A9
:1004400010B50446CCE0002347E06748006820F080
:100450002000654908606548006820F02000634975
:1004600008606348006820F0200061490860084681
:10047000006820F040000860184600F061FA5A4811
:10048000006840F02000584908605848006840F073
:100490002000564908605648006840F02000544942
:1004A00008600846006840F040000860E01A00F06C
:1004B00047FA4E48001F006800F0040058B94B4846
:1004C000001F006800F0080028B14848001F0068BD
:1004D00000F0100000B902E05B1CA342B5DB00BFD6
:1004E0004148006820F020003F4908603F4800680C
:1004F00020F020003D4908603D48006820F02000C1
:100500003B4908600846006820F040000860394810
:1005100000F016FA002334E03348006820F0200091
:10052000314908603148006820F020002F490860F8
:100530002F48006820F020002D4908600846006818
:1005400020F040000860E01A00F0FAF92648006840
:1005500040F02000244908602448006840F0200052
:10056000224908602248006840F0200020490860C5
:100570000846006840F040000860184600F0E0F9C6
:100580005B1CA342C8DB1848006840F020001649F5
:1005900008601648006840F02000144908601448BC
:1005A000006840F02000124908600846006840F0EA
:1005B000400008600F4800F0C3F90C48001F0068B5
:1005C00000F0040058B90A48001F006800F001005C
:1005D00028B10648001F006800F0100000B900E0D4
:1005E00031E700BF10BD00000C0C01400C180140A9
:1005F0000C08014020A1070000B55AE02E48006811
:1006000040F020002C4908602C4800F099F92A4855
:10061000006820F0200028490860284800F090F980
:100620002748006840F0200025490860234800F072
:1006300087F92348006820F02000214908601F48FE
:1006400000F07EF91F48006840F020001D49086056
:100650001A4800F075F91B48006820F0200019497D
:100660000860164800F06CF91648006840F0400039
:1006700014490860114800F063F91248006820F03E
:100680004000104908600D4800F05AF90D48001F5D
:10069000006800F0010058B10948001F006800F030
:1006A000080028B10648001F006800F0100000B9DB
:1006B00000E0A3E700BF00BD0C0C014020A1070033
:1006C0000C1801400C08014000B546E024480068C1
:1006D00040F02000224908602248006840F02000D5
:1006E000204908602048006840F020001E4908604A
:1006F0000846006840F0400008601C4800F020F9FF
:100700001748006820F02000154908601548006867
:1007100020F02000134908601348006820F02000F2
:10072000114908600846006820F0400008600F4842
:1007300000F006F90B48001F006800F0040058B9EB
:100740000948001F006800F0010028B10548001F9B
:10075000006800F0100000B900E0B7E700BF00BD7E
:100760000C0C01400C1801400C08014020A10700AE
:100770001D48806940F008001B498861084680696F
:1007800040F0040088610846806940F040008861BC
:100790001648006820F47000144908600846006894
:1007A00040F4401008601248006820F470001049BE
:1007B00008600846006840F4401008600D48006872
:1007C00020F470000B4908600846006840F44010AF
:1007D00008600846006820F07060086008460068FD
:1007E00040F040700860704700100240000C01406B
:1007F000001801400008014010B500F001F810BDDC
:100800000CB50020019000903348006840F480301F
:100810003149086000BF3048006800F400300090A3
:100820000198401C0190009818B90198B0F5A06F8C
:10083000F1D12948006800F4003010B10120009087
:1008400001E0002000900098012843D1234800686F
:1008500040F01000214908600846006820F00300BD
:1008600008600846006840F0020008601A484068C6
:10087000194948600846406848600846406840F4A6
:10088000806048600846406820F47C104860084654
:10089000406840F4E81048600846006840F0807006
:1008A000086000BF0C48006800F000700028F9D014
:1008B0000948406820F0030007494860084640683E
:1008C00040F00200486000BF0348406800F00C00A0
:1008D0000828F9D10CBD00000010024000200240A1
:1008E00010B51348006840F001001149086008463F
:1008F0004068104908400E494860084600680E49A3
:1009000008400B4908600846006820F48020086011
:100910000846406820F4FE0048604FF41F008860DD
:10092000FFF76AFF4FF000600449086010BD000047
:10093000001002400000FFF8FFFFF6FE08ED00E0A7
:1009400000BF011EA0F10100FBD1704700BF011ED6
:10095000A0F10100FBD17047FFF70AFFFFF734FD5C
:100960001AE0FFF7D7FC0446012C06D0022C09D070
:10097000032C0AD0042C0ED10AE041F28830FFF794
:100980005FFD08E0FFF738FE05E0FFF79DFE02E09F
:10099000FFF77AFC00BF00BFE3E70000BC090008D6
:1009A00000000020040000006C010008C0090008DD
:1009B0000400002064060000880100080100000017
:0400000508000131BD
:00000001FF
