:020000040800F2
:1000000060060020B1010008B9010008BB0100082A
:10001000BD010008BF010008C10100080000000088
:10002000000000000000000000000000C301000804
:10003000C501000800000000C7010008C901000850
:10004000CB010008CB010008CB010008CB01000860
:10005000CB010008CB010008CB010008CB01000850
:10006000CB010008CB010008CB010008CB01000840
:10007000CB010008CB010008CB010008CB01000830
:10008000CB010008CB010008CB010008CB01000820
:10009000CB010008CB010008CB010008CB01000810
:1000A000CB010008CB010008CB010008CB01000800
:1000B000CB010008CB010008CB010008CB010008F0
:1000C000CB010008CB010008CB010008CB010008E0
:1000D000CB010008CB010008CB010008CB010008D0
:1000E000CB010008CB010008CB010008CB010008C0
:1000F000CB010008CB010008CB010008CB010008B0
:10010000CB010008CB010008CB010008CB0100089F
:10011000CB010008CB010008CB010008CB0100088F
:10012000CB010008CB010008CB010008CB0100087F
:1001300000F002F800F02CF80AA090E8000C8244CD
:100140008344AAF10107DA4501D100F021F8AFF2AA
:10015000090EBAE80F0013F0010F18BFFB1A43F0A5
:100160000103184798030000A8030000002300249F
:1001700000250026103A28BF78C1FBD8520728BFB7
:1001800030C148BF0B6070471FB51FBD10B510BD13
:1001900000F031F81146FFF7F7FF00F0A7F900F083
:1001A0004FF803B4FFF7F2FF03BC00F057F800006C
:1001B0000948804709480047FEE7FEE7FEE7FEE7FB
:1001C000FEE7FEE7FEE7FEE7FEE7FEE70448054937
:1001D000054A064B70470000810400083101000801
:1001E0006000002060060020600200206002002005
:1001F000704770477047754600F02CF8AE46050012
:100200006946534620F00700854618B020B5FFF731
:10021000DDFFBDE820404FF000064FF000074FF033
:1002200000084FF0000B21F00701AC46ACE8C00914
:10023000ACE8C009ACE8C009ACE8C0098D4670471D
:1002400010B50446AFF300802046BDE81040FFF72C
:10025000A8BF000000487047000000200149182096
:10026000ABBEFEE7260002007047000047E02448CE
:10027000006840F0200022490860224800F030F970
:100280001F48006820F020001D4908601D4800F04C
:1002900027F91D48006840F020001B4908601948F4
:1002A00000F01EF91848006820F020001649086088
:1002B000144800F015F91548006840F02000134973
:1002C0000860104800F00CF91048006820F0200089
:1002D0000E4908600B4800F003F90C48006840F034
:1002E00040000A490860074800F0FAF8074800682B
:1002F00020F0400005490860024800F0F1F8B6E738
:100300000C0C014020A107000C1801400C08014012
:100310001D48806940F008001B49886108468069D3
:1003200040F0040088610846806940F04000886120
:100330001648006820F470001449086008460068F8
:1003400040F4401008601248006820F47000104922
:1003500008600846006840F4401008600D480068D6
:1003600020F470000B4908600846006840F4401013
:1003700008600846006820F0706008600846006861
:1003800040F040700860704700100240000C0140CF
:10039000001801400008014010B500F001F810BD40
:1003A0000CB50020019000903348006840F4803084
:1003B0003149086000BF3048006800F40030009008
:1003C0000198401C0190009818B90198B0F5A06FF1
:1003D000F1D12948006800F4003010B101200090EC
:1003E00001E0002000900098012843D123480068D4
:1003F00040F01000214908600846006820F0030022
:1004000008600846006840F0020008601A4840682A
:10041000194948600846406848600846406840F40A
:10042000806048600846406820F47C1048600846B8
:10043000406840F4E81048600846006840F080706A
:10044000086000BF0C48006800F000700028F9D078
:100450000948406820F003000749486008464068A2
:1004600040F00200486000BF0348406800F00C0004
:100470000828F9D10CBD0000001002400020024005
:1004800010B51348006840F00100114908600846A3
:100490004068104908400E494860084600680E4907
:1004A00008400B4908600846006820F48020086076
:1004B0000846406820F4FE0048604FF41F00886042
:1004C000FFF76AFF4FF000600449086010BD0000AC
:1004D000001002400000FFF8FFFFF6FE08ED00E00C
:1004E00000BF011EA0F10100FBD1704710B5FFF75E
:1004F0000FFFFFF7BBFE002010BD00000C05000839
:0C05000000000020600600006C010008F4
:0400000508000131BD
:00000001FF
