:020000040800F2
:1000000060060020B1010008B9010008BB0100082A
:10001000BD010008BF010008C10100080000000088
:10002000000000000000000000000000C301000804
:10003000C501000800000000C7010008C901000850
:10004000CB010008CB010008CB010008CB01000860
:10005000CB010008CB010008CB010008CB01000850
:10006000CB010008CB010008CB010008CB01000840
:10007000CB010008CB010008CB010008CB01000830
:10008000CB010008CB010008CB010008CB01000820
:10009000CB010008CB010008CB010008CB01000810
:1000A000CB010008CB010008CB010008CB01000800
:1000B000CB010008CB010008CB010008CB010008F0
:1000C000CB010008CB010008CB010008CB010008E0
:1000D000CB010008CB010008CB010008CB010008D0
:1000E000CB010008CB010008CB010008CB010008C0
:1000F000CB010008CB010008CB010008CB010008B0
:10010000CB010008CB010008CB010008CB0100089F
:10011000CB010008CB010008CB010008CB0100088F
:10012000CB010008CB010008CB010008CB0100087F
:1001300000F002F800F02CF80AA090E8000C8244CD
:100140008344AAF10107DA4501D100F021F8AFF2AA
:10015000090EBAE80F0013F0010F18BFFB1A43F0A5
:10016000010318474803000058030000002300243F
:1001700000250026103A28BF78C1FBD8520728BFB7
:1001800030C148BF0B6070471FB51FBD10B510BD13
:1001900000F031F81146FFF7F7FF00F079F900F0B1
:1001A0004FF803B4FFF7F2FF03BC00F057F800006C
:1001B0000948804709480047FEE7FEE7FEE7FEE7FB
:1001C000FEE7FEE7FEE7FEE7FEE7FEE70448054937
:1001D000054A064B7047000025040008310100085D
:1001E0006000002060060020600200206002002005
:1001F000704770477047754600F02CF8AE46050012
:100200006946534620F00700854618B020B5FFF731
:10021000DDFFBDE820404FF000064FF000074FF033
:1002200000084FF0000B21F00701AC46ACE8C00914
:10023000ACE8C009ACE8C009ACE8C0098D4670471D
:1002400010B50446AFF300802046BDE81040FFF72C
:10025000A8BF000000487047000000200149182096
:10026000ABBEFEE726000200704700000848806928
:1002700040F00400064988610846806940F040006B
:1002800088610448006820F00F0002490860704748
:10029000001002400008014047E02448006840F098
:1002A000200022490860224800F0ECF81F4800684E
:1002B00020F020001D4908601D4800F0E3F81D48AB
:1002C000006840F020001B490860194800F0DAF887
:1002D0001848006820F0200016490860144800F013
:1002E000D1F81548006840F0200013490860104814
:1002F00000F0C8F81048006820F020000E4908609F
:100300000B4800F0BFF80C48006840F040000A4974
:100310000860074800F0B6F80748006820F0400081
:1003200005490860024800F0ADF8B6E70C0C014042
:1003300020A107000C1801400C08014010B500F086
:1003400001F810BD0CB50020019000903348006802
:1003500040F480303149086000BF3048006800F444
:10036000003000900198401C0190009818B9019845
:10037000B0F5A06FF1D12948006800F4003010B149
:100380000120009001E0002000900098012843D156
:100390002348006840F010002149086008460068C2
:1003A00020F0030008600846006840F00200086082
:1003B0001A4840681949486008464068486008463D
:1003C000406840F4806048600846406820F47C1033
:1003D00048600846406840F4E810486008460068F5
:1003E00040F08070086000BF0C48006800F00070AA
:1003F0000028F9D00948406820F003000749486008
:100400000846406840F00200486000BF034840686A
:1004100000F00C000828F9D10CBD000000100240CB
:100420000020024010B51348006840F00100114957
:10043000086008464068104908400E494860084670
:1004400000680E4908400B4908600846006820F41F
:10045000802008600846406820F4FE0048604FF4A1
:100460001F008860FFF76AFF4FF0006004490860D2
:1004700010BD0000001002400000FFF8FFFFF6FE74
:1004800008ED00E000BF011EA0F10100FBD17047A4
:10049000FFF7ECFE06E00448006800F0010008B930
:1004A000FFF7FAFEF7E7000008080140BC04000867
:0C04B00000000020600600006C01000845
:0400000508000131BD
:00000001FF
