:020000040800F2
:1000000068060020CD010008D5010008D7010008CE
:10001000D9010008DB010008DD0100080000000034
:10002000000000000000000000000000DF010008E8
:10003000E101000800000000E3010008E5010008FC
:10004000E7010008E7010008E7010008E7010008F0
:10005000E7010008E7010008E7010008E7010008E0
:10006000E7010008E7010008E7010008E7010008D0
:10007000E7010008E7010008E7010008E7010008C0
:10008000E7010008E7010008E7010008E7010008B0
:10009000E7010008E7010008E7010008E7010008A0
:1000A000E7010008E7010008E7010008E701000890
:1000B000E7010008E7010008E7010008E701000880
:1000C000E7010008E7010008E7010008E701000870
:1000D000E7010008E7010008E7010008E701000860
:1000E000E7010008E7010008E7010008E701000850
:1000F000E7010008E7010008E7010008E701000840
:10010000E7010008E7010008E7010008E70100082F
:10011000E7010008E7010008E7010008E70100081F
:10012000E7010008E7010008E7010008E70100080F
:1001300000F002F800F03AF80AA090E8000C8244BF
:100140008344AAF10107DA4501D100F02FF8AFF29C
:10015000090EBAE80F0013F0010F18BFFB1A43F0A5
:1001600001031847140D0000340D0000103A24BF9D
:1001700078C878C1FAD8520724BF30C830C144BF0C
:1001800004680C607047000000230024002500264E
:10019000103A28BF78C1FBD8520728BF30C148BFEA
:1001A0000B6070471FB51FBD10B510BD00F06EF895
:1001B0001146FFF7F7FF00F001FA00F0A0F803B4D2
:1001C000FFF7F2FF03BC00F0E7F9000009488047A1
:1001D00009480047FEE7FEE7FEE7FEE7FEE7FEE729
:1001E000FEE7FEE7FEE7FEE704480549054A064B41
:1001F00070470000890400083101000868000020F1
:100200006806002068020020680200207047000095
:100210000FB4044910B503AA029800F009F810BC05
:100220005DF814FB0000002070477047704770476E
:10023000074B70B50D467B4400F011F80446284684
:1002400000F020F810B14FF0FF3070BD204670BDB7
:100250006703000001694A1C02610878704700B515
:100260008FB0CDE901310021059105497944CDE9EF
:1002700003101146684600F02EF80FB000BD0000D4
:10028000E5FFFFFF007B00F080007047754600F03F
:100290003FF8AE4605006946534620F00700854604
:1002A00018B020B5FFF7A0FFBDE820404FF00006D2
:1002B0004FF000074FF000084FF0000B21F007014E
:1002C000AC46ACE8C009ACE8C009ACE8C009ACE891
:1002D000C0098D4670472DE9F04106460024D6E955
:1002E0000170F5688046304603E04146B847641C1B
:1002F0003046A8470028F8D12046BDE8F08110B567
:100300000446AFF300802046BDE81040FFF757BF1A
:1003100000487047040000201D48806940F0080034
:100320001B4988610846806940F0040088610846DE
:10033000806940F0400088611648006820F4700031
:10034000144908600846006840F4401008601248EC
:10035000006820F47000104908600846006840F406
:10036000401008600D48006820F470000B490860D8
:100370000846006840F4401008600846006820F015
:10038000706008600846006840F040700860704780
:1003900000100240000C014000180140000801401C
:1003A00010B500F001F810BD0CB5002001900090D0
:1003B0003348006840F480303149086000BF30485D
:1003C000006800F4003000900198401C01900098F3
:1003D00018B90198B0F5A06FF1D12948006800F470
:1003E000003010B10120009001E000200090009842
:1003F000012843D12348006840F0100021490860DB
:100400000846006820F0030008600846006840F0D5
:10041000020008601A484068194948600846406868
:1004200048600846406840F480604860084640687C
:1004300020F47C1048600846406840F4E8104860AA
:100440000846006840F08070086000BF0C480068F3
:1004500000F000700028F9D00948406820F003003F
:10046000074948600846406840F00200486000BF05
:100470000348406800F00C000828F9D10CBD0000CA
:10048000001002400020024010B51348006840F000
:1004900001001149086008464068104908400E49AB
:1004A0004860084600680E4908400B490860084645
:1004B000006820F4802008600846406820F4FE00B0
:1004C00048604FF41F008860FFF76AFF4FF000603C
:1004D0000449086010BD0000001002400000FFF851
:1004E000FFFFF6FE08ED00E02DE9FE4F0446200177
:1004F00000F0BAFA07463A460B460020214900F0C0
:1005000015F905460E462846314600F067FA814641
:10051000484600F092FA2A463346CDE9000100F041
:10052000B5FB07460022184B00F0B2FA824600F0F5
:1005300055FA02901548806940F00400134988611B
:100540000846806940F4804088611148006820F4C2
:100550007F600F4908600846006840F496600860B4
:100560000C480088029941EA0911084309490880AA
:10057000081D008842F20C0108430649091D088045
:10058000BDE8FE8F882A91410000304000100240F3
:100590000408014008380140014600BF70470000D0
:1005A00000BF054A128802F04002002AF9D0C2B208
:1005B000014B1B1D1A80704700380140FFF7ACFE4D
:1005C0004FF41650FFF790FF02E002A0FFF720FE65
:1005D000FBE70000D5D4CFFEB6AB000010B591EA22
:1005E000030F48BF83F0004300F16483841A71EB6A
:1005F000030C05D2121943EB0C03001B61EB0C0139
:10060000DFF824E14FEA1154A4EB135C1EEA430F18
:1006100018BF9EEA445F73D023EA0E03DCF1200E7C
:1006200021EA045143F4801332D322FA0CFE10EB7A
:100630000E0023FA0CFE41EB0E01CCF1200E03FA62
:100640000EFE10EB0E0051F10001B1F5801FCCF150
:10065000200E32D201EB045112FA0EF2BDE8104026
:1006600058BF7047401C38BF5FEA420218BF70474E
:10067000002814BF20F0010041F100014FEA4103BE
:1006800013F5001F38BF7047A1F1C04100F0F8BA60
:10069000012A43EB0302ACF1200CDCF11F0E32BF48
:1006A0004FF0000E23FA0CF310EB030041EB045162
:1006B000B4EB115FD0D0A1EB045101F580114908D2
:1006C0005FEA300001EB04510ED350F1000038BF57
:1006D00012FA0EFE08D1BDE81040C9E7401C38BF31
:1006E0005FEA4202CAD1C3E7BDE810404FEA4103C6
:1006F00013F5001F38BF7047A1F1C04100F0C0BA28
:100700009EEA445F08D011EA5E0FBDE8104004BFC6
:1007100001F0004100207047BDE8104070B500F0C6
:1007200061FA00BF64FBBE3E0000E0FF2DE9C0415E
:1007300030B4DFF8A0C23CEA111418BF3CEA13142D
:1007400000F0EC8081EA03051CEA111444EAD57438
:1007500018BF1CEA131500F0C780A4EB05044FF086
:10076000004545EAC12145EAC32341EA505143EA25
:10077000525304F17F74994204F500344FEAC020CB
:100780004FEAC22208BF904200F09C804FEA1365F6
:100790000FF24016765D4FEA134506FB05F7C7F1E9
:1007A000807706FB07F74FEAD737A7FB0368764247
:1007B000C8F58038A7FB06CE38BFA8F1010807FBB3
:1007C00008E64FF0000EA6FB028CE6FB03CEDCF140
:1007D000000CCEF1004E38BFAEF1010EA6FB0C5856
:1007E0004FF000074FF00005E6FB0E87A1FB08C69F
:1007F000A0FB07CE16EB0E0645F10005E1FB0765F1
:1008000015F1E04E7EBFA4F580345FEA46066D41E7
:1008100016F1800745F100054FEA17274FEA0666F3
:1008200047EA0567A6F1DE46B6F1805F4FEA152577
:100830001FD9384624F0010C05EBC471BCF1FE6FE2
:1008400001EB0C1102D8F0BCBDE8008124425CBF72
:1008500001F5801E9EEAC47F02D4F0BCBDE8008191
:10086000244238D4F0BCA1F1C041BDE8004100F001
:1008700007BA4FEAD22242EA43524FEAD323A7FBF8
:1008800002864FEAD02040EA415007FB03661EEA89
:100890000E0F4FEAD12105FB026658BFA6EB0056AA
:1008A000B6EB00564FEA520E4EEAC37E18EB0E0E20
:1008B00056EB530EBDD518EB02085E417F1C55F177
:1008C0000005B6E74FF480154FF000074FF0000623
:1008D0004FF00008ADE7F0BC4FF0000001F1C0415F
:1008E00001F00041BDE8008111EA0C1F0CEA13156C
:1008F00000D00CE013EA0C1F00F025804FF0000040
:10090000F0BC81EA030101F00041BDE80081F0BCC8
:10091000BDE8004181EA030100F0B2B9F0BCBDE8D6
:10092000004170B500F05EF9097EFC3E00F007B8AA
:1009300081EA03014FF0000001F00041704781EAB5
:10094000030100F09DB9F0BCBDE800414FF000008C
:1009500021497047FFFDFBF9F7F5F4F2F0EEEDEBFE
:10096000E9E8E6E4E3E1E0DEDDDBDAD8D7D5D4D3AD
:10097000D1D0CFCDCCCBCAC8C7C6C5C4C2C1C0BFF9
:10098000BEBDBCBBBAB9B8B7B6B5B4B3B2B1B0AFFF
:10099000AEADACABAAA9A8A8A7A6A5A4A3A3A2A1E3
:1009A000A09F9F9E9D9C9C9B9A999998979796959E
:1009B00095949393929191908F8F8E8E8D8C8C8B3A
:1009C0008B8A8989888887878685858484838382C2
:1009D000828181800000FF070000F87F4FEA410319
:1009E0004FEA5353A3F58063D3F11E03C8BFD3F17D
:1009F000210C0CDD4FF0004242EAC12242EA505283
:100A000032FA03FC8CEAE17CACEBE1707047102B0E
:100A1000C4BF0020704703F5787CBCF1FF3F04D0D1
:100A20006FF0004282EA2100704770B500F0DAF8FA
:100A30004992248000207047F2E710F0004248BF3E
:100A40004042B0FA80F310FA03F10AD0C3F11D035B
:100A500003F580634FEA415002EB035202EBD121D0
:100A600070474FF000007047B0FA80F310FA03F1BE
:100A70000AD0C3F11D0303F580634FEA41504FEAEA
:100A8000035202EBD12170474FF000007047000085
:100A9000DFF848C170B51CEA111E1EBF1CEA131511
:100AA0009EEA0C0F95EA0C0F00F06F8081EA0304B8
:100AB00023EA4C134EEAD47E21EA4C1141F4801112
:100AC00043F48013AE44A1FB024CA0FB0365AEF1DE
:100AD0007F7E361955EB0C05A1FB034C4CF100034E
:100AE000A0FB021C16EB0C06654153F10003094202
:100AF00018BF46F0010613F4007F0BD14FEA033113
:100B00004FEA0530340341EA155140EA16506FF0C0
:100B100003020AE04FEAC3214FEAC520F40241EA8A
:100B2000555140EA56506FF0020202EB2E4201EBA3
:100B3000025585EACE710AD05FEA440C18BF24F052
:100B4000004450F1000041F1000120EAD47040F26D
:100B5000FE7C624500D270BDA84214BF4FF08044B5
:100B60004FF04044002E08BF0024BEF1806FA8BFA4
:100B7000A1F1C041BDE8704080F282804FF00000DA
:100B800001F1C04101F0004170479EEA0C0F0CEAF0
:100B9000131518BF95EA0C0F06D04FF0000081EA3C
:100BA000030E0EF0004170BD00F01CF88900013EFC
:100BB00000F007B800F009B84FEA430C5FEA5C5C4C
:100BC00008D081EA030100F05BB84FEA410C5FEA0C
:100BD0005C5CF6D14FF00000014970470000FF0750
:100BE0000000F87F0EF1020E2EF0030E5EF8046B8B
:100BF000364205D4012A43EB030515F5001F12D830
:100C0000012841EB010C1CF5001F0CD80ED14FEA56
:100C1000D17C15F5001F0CEB4C0C0CF1020C08BF3D
:100C20004CEBD37C04E04FF0080C01E04FEAD37C9E
:100C30000CEB4C0526FA05F606F00706B6F1040C97
:100C400006D20EEB860CBDE870404CF0010C6047FC
:100C5000DFE80CF0090B02024FF000414FF00000FA
:100C6000A1F5002170BD19461046012851EB010481
:100C700018BFD4F5001484BF002001F0004170BDFE
:100C80000808A0F500114FEA3101704791EA030FFF
:100C900010B581F000413FF5A9AC83F0004300F0AE
:100CA00009B8000010B591EA030F48BF83F0004374
:100CB0003FF59CAC841A71EB030C07D212198CF02F
:100CC000004C43EB0C03001B61EB0C01DFF8A4E1CB
:100CD0004FEA1154A4EB135C1EEA430F18BF9EEABF
:100CE000445F00F0B08023EA6E03524221EA0451CF
:100CF000C3EB6E0338BF5B1EDCF1200E25D322FA56
:100D00000CFE10EB0E0043FA0CFE41EB0E01CCF191
:100D1000200E03FA0EFE10EB0E0051F10001CCF193
:100D2000200E29D412FA0EF201EB0451BDE8104056
:100D300058BF7047401C1CBFB2F1004F70470028DD
:100D40000CBF491C20F00100704712EB020E43EB70
:100D5000030218BF4FF0010E4EEA4202ACF1200C24
:100D6000DCF11E0E54D943FA0CFE10EB0E0051F1CB
:100D7000FF31CCF11E0ED5D50EF1010E12FA0EFE8A
:100D8000404141EB010101EB445C5FEA5C5C10D93E
:100D900010EBDE7001EB045138BFBEF1004FBDE82F
:100DA000104018BF704700280CBF491C20F00100FC
:100DB000704730D24FEAD42C11F5001124F40064AE
:100DC0001BD0B1FA81F20B3AA41AA41ED2F120036F
:100DD000914030FA03F31943904001EBCC71002CA1
:100DE00001EB0451BDE81040A8BF704701F1C041BC
:100DF0004FF0000001F000417047B0FA80F310FAA4
:100E000003F100D110BDE41A173C4805C90AE4E714
:100E100001EB045110BD491001EB0451BDE8104035
:100E20004FEA300002E04FF0000170474A0008BF6F
:100E30000042F8D0B2F5001F28BF704701F0004112
:100E40004FF0000070479EEA445F07D011EA5E0F42
:100E5000BDE8104004BF002100207047BDE81040ED
:100E600070B5FFF7BFFE00BF40DFF63E83F00041E4
:100E7000104670470000E0FF980E000800000020B8
:100E8000040000006C0100089C0E00080400002013
:0C0E90006406000088010008000000005B
:0400000508000131BD
:00000001FF
